:020000040800F2
:1000000070110020851C0008410500084305000808
:10001000470500084B0500084F05000800000000D8
:100020000000000000000000000000005305000870
:100030005505000800000000570500085905000894
:100040009F1C00089F1C00089F1C00089F1C0008A4
:100050009F1C00089F1C00089F1C00089F1C000894
:100060009F1C00089F1C00089F1C00089F1C000884
:100070009F1C00089F1C00089F1C00089F1C000874
:100080009F1C00089F1C00089F1C00089F1C000864
:100090009F1C00089F1C00089F1C00089F1C000854
:1000A0009F1C00089F1C00089F1C00089F1C000844
:1000B000851B0008FF1A00089F1C00089F1C0008F1
:1000C0009F1C00089F1C00089F1C00089F1C000824
:1000D0009F1C0008711A0008DB3800089F1C0008EC
:1000E0009F1C00089F1C00089F1C00089F1C000804
:1000F0009F1C00089F1C00089F1C00089F1C0008F4
:100100009F1C00089F1C00089F1C00089F1C0008E3
:100110009F1C00089F1C00089F1C00089F1C0008D3
:100120009F1C00089F1C00089F1C00089F1C0008C3
:1001300000F002F800F096F80AA090E8000C824463
:100140008344AAF10107DA4501D100F08BF8AFF240
:10015000090EBAE80F0013F0010F18BFFB1A43F0A5
:100160000103184798C50000B8C50000103A24BF25
:1001700078C878C1FAD8520724BF30C830C144BF0C
:1001800004680C607047000000230024002500264E
:10019000103A28BF78C1FBD8520728BF30C148BFEA
:1001A0000B6070476E2907F03381702906F0E185F6
:1001B00066290AF0DF8065290AF0DC8067290AF0E9
:1001C000D9806129AFF3008003681B0A28BF41F082
:1001D0008001692906F05285642906F04F8575294A
:1001E00006F04C856F2907F02F84782906F0AD853D
:1001F000E92907F0C983E42907F0C683F52907F048
:10020000C383EF2907F02C84F82906F0AC85036836
:10021000DB0928BF41F08001632907F04A83732975
:1002200007F04F83E32907F00F85F32907F01485C2
:10023000002070471FB59DE8030007F03DF806F069
:100240008AFE07F053FC04000020002109F076F834
:10025000401C60600020002109F086F8E0601FBDAE
:1002600010B510BD07F0E2FD1146FFF7E3FF00F007
:1002700023F807F00EFE03B4FFF7F2FF03BC07F00C
:100280007BFE00000B49D1F800C04A685CF8043BD3
:100290001068184442F8040B8C4528BFA1F1DC0C0F
:1002A0008A4228BFA1F1DC02C1F800C04A6020F0F8
:1002B00000407047080B002086B0002400274FF450
:1002C000E13001F0C9FA01F05DFA4FF4FA7001F083
:1002D00096FA01F0D7F8002000F00DFD002000F0A4
:1002E00018FD00F07AFD00F029FA00F04FFA00F056
:1002F00059FC00F083FB4FF4E13001F000FB4FF4B8
:100300007A7001F07CFA03F05AFA03E04FF4FA70C5
:1003100001F075FA04F01EFB0028F7D100F05DFD36
:1003200041F61F4141F2873001F0FEFB41F61F41CB
:1003300040F6C31001F0B6FB002053490860FA20D4
:1003400001F05DFA01205149C1F8800101215048B6
:1003500004F06AFB97E0282094FBF0F100FB1140C9
:1003600000284AD14B4B4C4A4C494D4800F0E3FB26
:10037000462000F0F0FA18B900F049FB494908603E
:100380001021494801F091FD48490870444800781F
:1003900050280DDA404800781E2809DA44494148BF
:1003A000006809F0E7FE03D200204249087002E02D
:1003B0000120404908703B48006809F0CDFD054622
:1003C0000E463C48007808B13BA000E03DA037490C
:1003D000097809B13DA100E037A1CDE90256CDE988
:1003E00004102C48007800902B4803782B480278A2
:1003F0002B480178374801F010FB601C80B204469E
:10040000C82835DB1021284801F04FFD2749087026
:10041000314801F002FB31A001F0FFFA21480068E9
:1004200009F09AFD05460E46224800781F490978D2
:1004300009B9012100E00021CDE90256CDE90410FF
:100440001448007814490978CDE90010134803785E
:100450001348027829A1384806F0AAFB36493748E4
:1004600004F00AFB1C4801F0D8FA002403F02AF932
:10047000032003F083F9074617B1384604F028FB40
:100480000A2001F0BCF966E7800121420000214208
:1004900010000020050000200400002003000020C0
:1004A0000200002008000020000801400C0000208D
:1004B00000007A4400000020A1BEC6F4B6AFA1BF80
:1004C00000000000CDA3D6B900000000B9D8B1D516
:1004D000000000003CC6000890C60008B7A2B2BCED
:1004E000CAFDBEDD202D2D2D2D2D204F6E654E65B4
:1004F000745F5075626C6973680000007B224875F8
:100500006D223A25642E25642C2254656D70223AA2
:1005100025642E25642C224C69676874223A252EA6
:1005200031662C224C6564223A25642C2242656592
:1005300070223A25647D00005800002068A400085D
:10054000704700BFFEE700BFFEE700BFFEE700BF49
:10055000FEE7704770477047704700000CB50020F9
:10056000019000906C48006840F480306A4908604F
:1005700000BF6948006800F4003000900198401CFA
:100580000190009818B90198B0F5A06FF1D16248B8
:10059000006800F4003010B10120009001E000205C
:1005A00000900098012843D15C48006840F010009A
:1005B0005A4908600846006820F0030008600846B1
:1005C000006840F0020008605348406852494860A3
:1005D0000846406848600846406840F480604860CB
:1005E0000846406820F47C1048600846406840F4A3
:1005F000E81048600846006840F08070086000BF5E
:100600004548006800F000700028F9D04248406872
:1006100020F00300404948600846406840F002006E
:10062000486000BF3C48406800F00C000828F9D141
:100630000CBD10B5FFF792FF10BD10B5364800682D
:1006400040F00100344908600846406834490840D9
:100650003149486008460068324908402E49086020
:100660000846006820F4802008600846406820F4AE
:10067000FE0048604FF41F008860FFF7DAFF4FF07C
:1006800000602949086010BD10B50021002000223B
:10069000214B5B6803F00C0121B1042906D0082925
:1006A00028D107E0214B224C236027E01F4B204C30
:1006B000236023E0184B5B6803F47010164B5B68F3
:1006C00003F48032022303EB904022B9194B4343D9
:1006D000174C23600DE0104B5B6803F4003323B12B
:1006E000144B4343124C236003E0104B4343104C24
:1006F000236003E00D4B0E4C236000BF00BF064B90
:100700005B68C3F303130C4CE15C094B1B68CB40E3
:10071000074C236010BD0000001002400020024082
:100720000000FFF8FFFFF6FE08ED00E000127A007F
:100730001800002000093D001C00002008B5012120
:10074000142001F0DBFD1020ADF800008DF803004F
:1007500003208DF8020069460A4801F013FB1021BE
:10076000084801F0BCFB4FF40050ADF800006946AA
:10077000054801F007FB4FF40051034801F0AFFBBF
:1007800008BD0000000801400010014008B501212B
:10079000042001F0B3FD0120ADF8000010208DF819
:1007A000030003208DF802006946044801F0EAFACC
:1007B0000121024801F093FB08BD00000008014040
:1007C000002001E0411CC8B20A28FBDB704710B5CD
:1007D00080209749086040200860FFF7F1FF8020E3
:1007E0009349091D0860FFF7EBFF40209049091D60
:1007F0000860FFF7E5FF10BD10B580208C49091D8A
:1008000008604020091F0860FFF7DAFF8020884950
:10081000086010BD70B50446002520E004F080009B
:1008200018B180208249086003E080208049091DBA
:100830000860FFF7C5FF40207D490860FFF7C0FF53
:1008400040207B49091D0860072D02D18020091F27
:1008500008606006040EFFF7B3FF681CC5B2082DE0
:10086000DCDB70BD70B50024002516E06006040EC8
:1008700040206F490860FFF7A3FF6D480838006803
:1008800000F0800008B1601CC4B240206849091D16
:100890000860FFF795FF681CC5B2082DE6DB20460F
:1008A00070BD10B5802062490860FFF789FF4020C5
:1008B0005F490860FFF784FF5D480838006800F072
:1008C000800008B1012400E0002440205849091D9F
:1008D0000860FFF775FF204610BD10B58020544911
:1008E000091D0860FFF76CFF402051490860FFF7C1
:1008F00067FF40204E49091D0860FFF761FF802017
:100900004B49086010BD10B5802049490860FFF7C9
:1009100057FF402046490860FFF752FF40204449F6
:10092000091D0860FFF74CFF10BD08B50121082024
:1009300001F0E4FCC020ADF8000003208DF80200B7
:1009400014208DF8030069463948103801F01AFA6E
:10095000FFF752FF08BD70B50446FFF738FF204689
:10096000FFF758FFFFF79DFF0546FFF745FF2846B5
:1009700070BD10B50446FFF72AFF4620FFF74AFF77
:10098000FFF78FFF012800D110BD2046FFF742FF7F
:10099000FFF787FF012801D10220F5E7FFF72CFFC1
:1009A0000020F1E710B50024FFF711FF4720FFF703
:1009B00031FFFFF776FF012801D1002010BDFFF7BE
:1009C00051FF0446FFF789FFFFF74CFF00EB0420BF
:1009D00084B2FFF798FFFFF70FFF2046EEE710B550
:1009E0000120FFF7C6FF10BD10B50020FFF7C1FFC3
:1009F00010BD10B50720FFF7BCFF10BD10B5FFF705
:100A000094FFFFF7ECFF1020FFF7B3FF10BD70B5A8
:100A1000FFF7C8FF064609F099FB0546054909F0AE
:100A2000D3FA04464FF07E5109F0D8FB70BD0000A8
:100A3000100C0140CDCC8C3F10B56A48006820F006
:100A40000F00684908600846006840F0030008602D
:100A5000002065490860142000F0D1FE01206349A0
:100A6000C1F8A0011E2000F0A6FE10BD10B50024A4
:100A70005C48006820F00F005A490860084600688A
:100A800040F00800086004E0601CC4B2012000F0DF
:100A900092FE55488038006808B1642CF4DB642C61
:100AA00001DB012010BD002404E0601CC4B2012061
:100AB00000F081FE4C488038006808B9642CF4DBF3
:100AC000642C01DB0120EDE70020EBE710B50024EA
:100AD00004E0601CC4B2012000F06DFE4248803882
:100AE000006808B1642CF4DB002404E0601CC4B28C
:100AF000012000F060FE3C488038006808B9642C92
:100B0000F4DB282000F057FE37488038006808B131
:100B1000012010BD0020FCE770B50024002506E090
:100B20006006040EFFF7D2FF0443681CC5B2082D0F
:100B3000F6DB204670BD2DE9FC4105460E46174602
:100B40009846FFF779FFFFF791FF30BB002405E0DF
:100B5000FFF7E2FF0DF80400601CC4B2052CF7DBC0
:100B60009DF800009DF8011008449DF8021008440B
:100B70009DF8031008449DF80410884210D19DF898
:100B8000000028709DF8010030709DF80200387058
:100B90009DF8030088F8000002E00120BDE8FC8118
:100BA0000020FBE708B50121042001F0A7FB4FF46A
:100BB0008070ADF8000010208DF8030003208DF840
:100BC000020069460748001F01F0DCF84FF480710D
:100BD0000448001F01F083F9FFF72EFFFFF746FFDF
:100BE00008BD000004080140A0012142000021428C
:100BF000032000BF0100A0F10102D0B2FAD170477A
:100C000010B58021F84801F06CF92021F64801F078
:100C100066F9FFF7EDFF8021F34801F060F910BDA0
:100C200010B58021F04801F05AF9FFF7E1FF2021CB
:100C3000ED4801F054F9FFF7DBFF2021EA4801F00D
:100C400050F9FFF7D5FF10BD70B5044600251BE035
:100C500004F0800020B18021E34801F040F903E076
:100C60008021E14801F03DF9FFF7C2FF2021DE4875
:100C700001F035F9FFF7BCFF2021DB4801F031F925
:100C80006006040E681CC5B2082DE1DB70BD10B50E
:100C90008021D54801F023F92021D34801F01FF924
:100CA000FFF7A6FF8021D04801F01BF9FFF7A0FF56
:100CB0002021CD4801F015F9FFF79AFF10BD70B55E
:100CC00005460C46FFF7E3FF7820FFF7BDFFFFF76F
:100CD000A7FF1CB14020FFF7B7FF02E00020FFF79D
:100CE000B3FFFFF79DFF2846FFF7AEFFFFF798FF22
:100CF000FFF786FF70BD10B504461CB90021A62081
:100D0000FFF7DDFF012C03D10021A720FFF7D7FF5C
:100D100010BD10B504463CB90021C820FFF7CFFF35
:100D20000021A120FFF7CBFF012C07D10021C0201B
:100D3000FFF7C5FF0021A020FFF7C1FF10BD10B5D0
:100D400000218D20FFF7BBFF00211420FFF7B7FF24
:100D50000021AF20FFF7B3FF10BD10B500218D209B
:100D6000FFF7ADFF00211020FFF7A9FF0021AE2003
:100D7000FFF7A5FF10BD70B500242BE004F1B00112
:100D8000C8B20021FFF79BFF00210846FFF797FF3D
:100D900000211020FFF793FFFFF779FF7820FFF77E
:100DA00053FFFFF73DFF4020FFF74EFFFFF738FFEF
:100DB000002509E08D4901EBC501085DFFF744FFFF
:100DC000FFF72EFF681CC5B2802DF3DBFFF718FF7D
:100DD000601CC4B2082CD1DB70BD70B500240CE0DF
:100DE000002506E00020814901EBC5010855681C7B
:100DF000C5B2802DF6DB601CC4B2082CF0DBFFF717
:100E0000BAFF70BDF0B514460B46CF1701EB57770C
:100E1000C7F3C702CF1701EB5777FF10A1EBC70746
:100E2000FEB20123B340DDB24CB1704B03EBC00303
:100E30009B5C2B436D4F07EBC007BB541AE06B4B19
:100E400003EBC0039B5CDB43684F07EBC007BB545D
:100E5000664B03EBC0039B5C2B43644F07EBC0075F
:100E6000BB54624B03EBC0039B5CDB435F4F07EB60
:100E7000C007BB54F0BD2DE9FF4F84B081468A46C0
:100E80000020029083460698A0EB09040798A0EB87
:100E90000A06CDF80490CDF800A0002C01DD012752
:100EA00005E00CB9002702E04FF0FF376442002E46
:100EB00002DD4FF0010806E016B94FF0000802E02D
:100EC0004FF0FF386642B44201DD254600E035466A
:100ED000002003901EE0009AD1B2019AD0B2119A7C
:100EE000FFF790FF029820440290B3440298A84272
:100EF00005DD0298401B0290019838440190AB45F3
:100F000004DDABEB050B0098404400900398401CB7
:100F100080B20390691C03988842DCDB08B0BDE80E
:100F2000F08F2DE9F04306460F46904600254446D3
:100F300043E03A1BD1B27219D0B20122FFF762FF2F
:100F40003A1BD1B2721BD0B20122FFF75BFF3A19F4
:100F5000D1B2721BD0B20122FFF754FF3A19D1B2BD
:100F60007219D0B20122FFF74DFF7A19D1B23219AE
:100F7000D0B20122FFF746FF7A1BD1B23219D0B2AC
:100F80000122FFF73FFF7A1BD1B2321BD0B2012200
:100F9000FFF738FF7A19D1B2321BD0B20122FFF726
:100FA00031FF6D1C05FB05F004FB040008FB18096C
:100FB000B9F1000F01DD641E6D1E6000604308FB87
:100FC00008F18842B5DABDE8F0832DE9FE4F074607
:100FD000884692461C460197CDF80080082C07D120
:100FE0004FF0060924E000000008014058010020ED
:100FF0002046E31704EB5373DB1021464FEAE47CF1
:1010000004EB5C7C4FEAEC0CA4EBCC0CBCF1000FC5
:1010100002D04FF0010C01E04FF0000C6344224677
:1010200004EBD27C4FEA6C0C03FB0CF303F0FF09DA
:10103000AAF12000C6B200255EE0082C07D106EB1D
:101040004600FE4901EB400010F805B01DE00C2CF5
:1010500007D106EB4600FA4901EB800010F805B015
:1010600013E0102C05D1F74800EB061010F805B07E
:101070000BE0182C07D106EBC600F34901EB80000A
:1010800010F805B001E0BDE8FE8F002002901CE0E2
:101090000BF0010028B1414638460C9AFFF7B2FE2A
:1010A00009E00C9808B9012000E000200246414602
:1010B0003846FFF7A7FE4FEA6B0B08F1010000F07E
:1010C000FF080298401CC0B2029002980828DFDB9B
:1010D000781CC7B2082C0BD004EBD4714A100199CC
:1010E000791A8A4204D1019F00980830C0B200905A
:1010F000DDF80080681CC5B24D459EDB00BFC2E72D
:101100002DE9F84106460F4614461D46DDF81C80C1
:1011100013E0CDF8008022782B4639463046FFF7A1
:1011200054FF082D02D1B01DC6B205E0284605EBDC
:10113000D07106EB6101CEB2641C2078202802DB5E
:1011400020787E28E5DDBDE8F88110B50246012053
:1011500000E050430B00A1F10104E1B2F9D110BD50
:101160002DE9FF4F82B0064691461F46DDE90F4A42
:101170004FF0000B082C01D14FF0020B002530E09E
:10118000781B401EC1B20A20FFF7DFFFB9FBF0F069
:101190000A21B0FBF1F201FB1208B8F1000F0ED1E9
:1011A00004EBD4710BEB610101FB0561C8B223466E
:1011B0003022CDE900A40399FFF707FF0FE004EB0D
:1011C000D4710BEB610101FB0561C8B208F130017C
:1011D000CAB22346CDE900A40399FFF7F6FE681CC6
:1011E000C5B2BD42CCDB06B0BDE8F08F2DE9FC4FA7
:1011F0000746884616461C46BB46CDF80480204666
:10120000E21704EB5272D2102146E31704EB53733A
:10121000DB10A4EBC3030BB1012300E000231A444D
:10122000624392B20092002555E0102C05D1874808
:1012300000EB461010F805A01BE0182C07D106EBB8
:10124000C600834901EBC00010F805A011E0202C76
:1012500005D1804800EBC61010F805A009E0402C2D
:1012600005D17D4800EB462010F805A001E0BDE85F
:10127000FC8F4FF000091CE00AF0010028B1414644
:1012800038460B9AFFF7BEFD09E00B9808B901201C
:1012900000E00020024641463846FFF7B3FD4FEA22
:1012A0006A0A08F1010000F0FF0809F1010000F0EE
:1012B000FF09B9F1080FDFDB781CC7B2A7EB0B0001
:1012C000A04204D15F4601980830C0B20190DDF819
:1012D0000480681C85B200988542A6DB00BFC6E783
:1012E00008B5804689469246002600274BE04FB954
:1012F0001023324618218020CDF800A0FFF776FF9A
:10130000701CC6B2464522D14FF0000B1AE00124F2
:1013100010E000250AE0514800EBC400415D601E6A
:101320004E4A02EBC0004155681CC5B2082DF2DBE5
:10133000601CC4B2902CECDBFFF71DFD0BF101002B
:1013400000F0FF0B4FEA09105845E0DC0026781C3E
:10135000C7B2102F00D10027012410E000250AE0B9
:101360003E4800EBC400415D601E3C4A02EBC000F9
:101370004155681CC5B2082DF2DB601CC4B2902C2C
:10138000ECDBFFF7F8FCB2E72DE9FF4F05460E4610
:1013900017461C46DDF838904FF0000A0095B3461A
:1013A0002046E21704EB5272D2102146E31704EBF9
:1013B0005373DB10A4EBC3030BB1012300E0002344
:1013C0001A44D4B24FF0000858E0002003904EE0D9
:1013D0000D9810F80A0002900AF101001FFA80FA35
:1013E000002001901DE0029800F0010028B14A465B
:1013F00031462846FFF706FD0AE0B9F1000F01D19A
:10140000012000E00020024631462846FFF7FAFCA2
:10141000029840100290701CC6B20198401CC0B2E5
:10142000019001980828DEDB681CC5B20098281AD4
:10143000B84217D1009D0BF1080011E079A4000813
:10144000A1A6000815AB000805B1000861BE0008A0
:1014500001C2000849C20008C9C2000858010020A2
:1014600000F0FF0B5E460398401CC0B20390039847
:10147000B842ADDB08F1010000F0FF08A045A4DB95
:10148000BDE8FF8F08B50121042000F037FFA02040
:10149000ADF8000014208DF8030003208DF8020041
:1014A0006946AB4800F06EFCA021A94800F017FD8A
:1014B0000420ADF8000010208DF8030003208DF803
:1014C00002006946A24800F05DFC0421A04800F03B
:1014D00006FDC82000F093F90021AE20FFF7EFFBD6
:1014E00000210846FFF7EBFB00211020FFF7E7FB88
:1014F00000214020FFF7E3FB00218120FFF7DFFB05
:101500000021CF20FFF7DBFB0021A120FFF7D7FB55
:101510000021C820FFF7D3FB0021A620FFF7CFFB57
:101520000021A820FFF7CBFB00213F20FFF7C7FBDE
:101530000021D320FFF7C3FB00210846FFF7BFFBC4
:101540000021D520FFF7BBFB00218020FFF7B7FB70
:101550000021D920FFF7B3FB0021F120FFF7AFFBFB
:101560000021DA20FFF7ABFB00211220FFF7A7FBD9
:101570000021DB20FFF7A3FB00213020FFF79FFBBA
:1015800000212020FFF79BFB00210220FFF797FBA3
:1015900000218D20FFF793FB00211420FFF78FFB24
:1015A000FFF71BFC0021AF20FFF789FB08BDF8B552
:1015B00004460D4616461F4601203B4665A22946B5
:1015C00000902046FFF79CFD01203B46324629460D
:1015D00000902046FFF794FDF8BDF8B505460024BD
:1015E0006148007804285EDA5F490878C11700EB8B
:1015F00091718910A0EB810131B1012909D0022933
:101600000CD0032914D10EE02946584805F0DAFC25
:101610000FE02946564805F0D5FC0AE02946554812
:1016200005F0D0FC05E02946534805F0CBFC00E06E
:1016300000BF00BF4C480678F01706EB9070801092
:10164000A6EB80000007010E10232A460020FFF7BA
:10165000AEFFFFF790FBFEF715FE642190FBF1F261
:1016600001FB1204A0B200F0CAF8012000903E482D
:101670000678F01706EB90708010A6EB800000074C
:10168000010E10233DA25820FFF73AFDFFF773FB30
:10169000FEF7F8FD642190FBF1F201FB1204A0B209
:1016A00000F0ADF84DE03249304805F08BFC0120E8
:1016B00010232E4A002100900846FFF721FD2D49F6
:1016C0002B4805F07FFC01201023294A1946009081
:1016D0000020FFF715FD2849264805F073FC01207E
:1016E0001023244A202100900020FFF709FD2946FD
:1016F000214805F067FC10232A4630210020FFF71F
:1017000056FFFFF738FBFEF7BDFD642190FBF1F2B9
:1017100001FB1204A0B200F072F80120102317A2FE
:10172000302100905820FFF7EBFCFFF724FBFEF779
:10173000A9FD642190FBF1F201FB1204A0B200F0BC
:101740005EF809480078401C07490870F8BD0000A1
:1017500000080140202020202020202020202020C0
:1017600020202020000000002C000020D8050020B0
:10177000E8050020F8050020080600205B4F4B5DBF
:101780000000000010B56FF0040001F06EF82E4864
:1017900000682E49B0FBF1F02D490870084600782A
:1017A00000EB4001C1EBC0104FF6FF7101EAC00031
:1017B0002849088010BD0146254A12784A434FF057
:1017C000E0235A6100229A611A46126942F001022E
:1017D0001A6100BF4FF0E022106900F001021AB157
:1017E00000F48032002AF5D04FF0E022126922F096
:1017F00001024FF0E0231A6100229A61704701460E
:10180000144A12884A434FF0E0235A6100229A6139
:101810001A46126942F001021A6100BF4FF0E0223D
:10182000106900F001021AB100F48032002AF5D0EC
:101830004FF0E022126922F001024FF0E0231A611A
:1018400000229A61704700001800002000127A0000
:101850002E0000203000002010B586B00446012183
:10186000042000F04BFD0121880300F047FD182003
:101870008DF817004FF40070ADF8140003208DF8B8
:10188000160005A9804800F07DFA04208DF81700A5
:101890000002ADF8140003208DF8160005A97A485F
:1018A00000F070FA01940020ADF810000C20ADF8A3
:1018B0000E000020ADF80C00ADF80A00ADF80800ED
:1018C00001A9724800F0C1FD0121704800F049FEF5
:1018D000012240F225516D4800F04FFE25208DF881
:1018E000000001208DF8030000208DF80100022087
:1018F0008DF80200684600F06EFF06B010BD10B50E
:1019000086B004460121042000F0F8FC01214804BF
:1019100000F001FD18208DF817000420ADF8140028
:1019200003208DF8160005A9574800F02BFA042073
:101930008DF817000820ADF8140003208DF816006C
:1019400005A9514800F01EFA01940020ADF81000DE
:101950000C20ADF80E000020ADF80C00ADF80A0028
:10196000ADF8080001A94A4800F06FFD0121484880
:1019700000F0F7FD012240F22551454800F0FDFD41
:1019800026208DF8000001208DF8030000208DF83E
:1019900001008DF80200684600F01DFF06B010BD82
:1019A0002DE9F04107460C46154600260DE014F8D7
:1019B000011B384600F042FE00BF4021384600F0CF
:1019C000ABFE0028F9D0701C86B2AE42EFDBBDE85A
:1019D000F0810FB430B5CBB0054601AC50A80090F3
:1019E0004FF4947101A8009B4F9A05F0C7F80020AE
:1019F00000900BE014F8011B284600F01FFE00BF0A
:101A00004021284600F088FE0028F9D020780028E0
:101A1000F0D14BB030BC5DF814FB0FB410B5CCB0B6
:101A200002AC4FA801904FF4947102A8019B4E9A0A
:101A300005F0A4F80020019016A11448FFF7C9FF93
:101A40000BE014F8011B114800F0F8FD00BF402125
:101A50000E4800F061FE0028F9D020780028F0D16F
:101A60000FA10A48FFF7B5FF4CB010BC5DF814FB9E
:101A700010B540F22551054800F064FE18B1202150
:101A8000024800F056FE10BD000801400038014039
:101A9000004400405B4C4F475D202F3E200000007B
:101AA0000D0A00007FB505460C460121022000F01A
:101AB00032FCADF80850ADF804400020ADF80A0043
:101AC000ADF8060001A9564800F0C2FF01221146F8
:101AD000534801F034FB1D208DF8000000208DF8E4
:101AE000010003208DF8020001208DF803006846F4
:101AF00000F071FE01214A4801F006FB7FBD10B5E0
:101B00000121474801F0C9FD68B10121444801F0B5
:101B1000D5FD4448007818B100204349086002E030
:101B200001204149086010BD7FB505460C460121E2
:101B3000084600F0F0FBADF80850ADF80440002076
:101B4000ADF80A00ADF8060001A94FF0804000F0A2
:101B50007FFF01221146900701F0F1FA1C208DF859
:101B6000000000208DF8010003208DF80200012004
:101B70008DF80300684600F02EFE0121880701F071
:101B8000C3FA7FBD38B50121880701F086FD002822
:101B900044D00121880701F091FD24A1274805F0D8
:101BA00007F801201023254A002100901420FFF798
:101BB000A7FA234803782348027823A11F4804F09A
:101BC000F7FF012010231D4A194600900020FFF75F
:101BD00097FA214803782148027821A1174804F098
:101BE000E7FF01201023154A202100900020FFF775
:101BF00087FA1F48006808F0AFF9044622460B46F2
:101C00001CA10E4804F0D4FF012010230B4A302100
:101C100000900020FFF774FAFFF7ADF838BD000020
:101C20000004004000000020800121424A77646CDB
:101C300068277320686F6D6500000000180600209B
:101C4000030000200200002048756D3A25642E250F
:101C5000642025250000000005000020040000206D
:101C600054656D703A25642E256420430000000001
:101C7000080000204C696768743A25312E66204CB4
:101C8000780000000948804709480047FEE7FEE762
:101C9000FEE7FEE7FEE7FEE7FEE7FEE7FEE7FEE71C
:101CA00004480549054A064B704700003B060008FA
:101CB00031010008700B002070110020700D002011
:101CC000700D002010B50446CC48844208D1012193
:101CD000042000F02DFB0021042000F029FB46E049
:101CE000C748844208D10121082000F021FB0021CF
:101CF000082000F01DFB3AE0C248844208D10121CF
:101D0000102000F015FB0021102000F011FB2EE048
:101D1000BD48844208D10121202000F009FB0021A8
:101D2000202000F005FB22E0B848844208D10121C0
:101D3000402000F0FDFA0021402000F0F9FA16E002
:101D4000B348844208D10121802000F0F1FA00213B
:101D5000802000F0EDFA0AE0AE48844207D101216C
:101D6000801500F0E5FA0021A01500F0E1FA10BDA1
:101D700010B50121084600F0DBFA0021012000F037
:101D8000D7FA10BD2DE9F0410246002500260020BB
:101D900000230024002791F803C00CF00F0591F8F0
:101DA00003C00CF0100CBCF1000F03D091F802C07E
:101DB0004CEA050591F800C0BCF1000F31D0146861
:101DC00000202BE04FF0010C0CFA00F3B1F800C03A
:101DD0000CEA03069E4220D183004FF00F0C0CFA50
:101DE00003F7BC4305FA03FC4CEA040491F803C072
:101DF000BCF1280F06D14FF0010C0CFA00FCC2F820
:101E000014C00AE091F803C0BCF1480F05D14FF0AF
:101E1000010C0CFA00FCC2F810C0401C0828D1D3F9
:101E20001460B1F800C0BCF1FF0F34DD546800202D
:101E30002EE000F1080C4FF0010808FA0CF3B1F89D
:101E400000C00CEA03069E4221D183004FF00F0C24
:101E50000CFA03F7BC4305FA03FC4CEA040491F8BE
:101E600003C0BCF1280F05D100F1080C08FA0CF8EA
:101E7000C2F8148091F803C0BCF1480F07D100F1FB
:101E8000080C4FF0010808FA0CF8C2F81080401C4A
:101E90000828CED35460BDE8F0814FF6FF71018071
:101EA000022181700421C1707047024600209368AE
:101EB0000B400BB1012000E000207047014688680C
:101EC00080B2704702460020D3680B400BB101205E
:101ED00000E0002070470146C86880B27047016189
:101EE0007047416170470AB1016100E0416170478C
:101EF000C16070474FF480320A4382618161826120
:101F000082698269704702460020434B18684FF689
:101F10008073184040EA021008433F4B1860704736
:101F20003E49C8617047F0B50A46002300240021ED
:101F3000002500F00046B6F1004F02D1364EF1699F
:101F400001E0354E7168C0F3034583B200F44016DA
:101F5000B6F5401F08D121F070612F4E766826F04B
:101F600070662D4F7E6012E000F48016B6F5801F7B
:101F700006D1032606FA05F4A14341F0706106E09C
:101F8000460D360103FA06F6B14341F0706122B105
:101F9000460D360103FA06F6314300F00046B6F16D
:101FA000004F02D11C4EF16101E01B4E7160F0BD8B
:101FB00030B500228B071C0F0F2303FA04F2164BD7
:101FC00008338C1053F824309343134C08348D108D
:101FD00044F8253023468C1053F824308C07240F06
:101FE00000FA04F423430C4C08348D1044F82530D7
:101FF00030BD0A49DC31086070470000000801402C
:10200000000C014000100140001401400018014084
:10201000001C01400020014000000140000020425F
:10202000DF48006840F00100DD490860084640686C
:10203000DC490840DA49486008460068DA49084047
:10204000D74908600846006820F4802008600846E8
:10205000406820F4FE0048604FF41F00886070471D
:10206000CF49096821F48031CD4A116011460968D1
:1020700021F480211160B0F5803F03D0B0F5802FAE
:102080000ED106E0C649096841F48031C44A1160A6
:1020900007E0C349096841F4A021C14A116000E08A
:1020A00000BF00BF704710B501460022002300208A
:1020B0004A11012A02D1BA4C236806E0022A02D151
:1020C000B74C236A01E0B64C636A01F01F02012499
:1020D00094401C400CB1012000E0002010BD38B538
:1020E000002000900024002500BF3120FFF7DBFF17
:1020F00005460098401C00900098B0F5A06F01D0F4
:10210000002DF2D03120FFF7CEFF08B1012400E00E
:102110000024204638BD01460020A14A106820F066
:10212000F80040EAC10010607047A049086070479D
:10213000024600209A4B586820F47C1042EA0103C2
:102140001843974B58607047984908667047014696
:102150000020934A506820F0030008435060704705
:102160008F48406800F00C007047014600208C4A00
:10217000506820F0F000084350607047014600208E
:10218000874A506820F4E060084350607047014679
:102190000020834A506820F4605040EAC10050603B
:1021A000704729B17E4A527A02437D4B5A7204E04D
:1021B0007B4A527A82437A4B5A7270477B49D831B4
:1021C0000860704701460020754A506820F440407E
:1021D0000843506070470021714A20321170704AE4
:1021E00082F82010012802D004280AD104E001213D
:1021F0006B4A2032117005E00521694A20321170C6
:1022000000E000BF00BF704769490860704764493B
:10221000096A0143624A116270476549443908609E
:10222000704730B500210022002400235C4D6D680A
:1022300005F00C0121B1042905D0082923D105E0BE
:102240005C4D056022E05B4D05601FE0544D6D68FC
:1022500005F47012524D6D6805F48034022505EBCB
:1022600092421CB9544D554305600BE04C4D6D68CE
:1022700005F400351DB1504D5543056002E04D4D4C
:102280005543056002E04B4D056000BF00BF444D63
:102290006D6805F0F0010909484D6B5C0568DD408B
:1022A00045603F4D6D6805F4E061090A434D6B5C84
:1022B0004568DD4085603A4D6D6805F46051C90A96
:1022C0003E4D6B5C4568DD40C560354D6D6805F47D
:1022D0004041890B3A4D6B5CC568B5FBF3F5056170
:1022E00030BD29B12E4A526902432D4B5A6104E098
:1022F0002B4A526982432A4B5A61704729B1284AB6
:1023000092690243264B9A6104E0254A926982430E
:10231000234B9A61704729B1214AD2690243204B6D
:10232000DA6104E01E4AD26982431D4BDA617047CC
:1023300029B11B4AD2680243194BDA6004E0184AFB
:10234000D2688243164BDA60704729B1144A126989
:102350000243134B1A6104E0114A12698243104B85
:102360001A61704712494039086070470F49C864C4
:1023700070470B49C87170470948406A40F0807047
:1023800007494862704701460020054A92680A40A2
:102390000AB1012000E000207047014988727047AF
:1023A000001002400000FFF8FFFFF6FE000042426E
:1023B0008004424200127A0000093D0032000020F1
:1023C0004200002010B50446FB48844209D1012197
:1023D0008803FFF7ADFF00214FF48040FFF7A8FF0F
:1023E00032E0F648844209D101214804FFF7ADFFED
:1023F00000214FF40030FFF7A8FF25E0F0488442A9
:1024000009D101218804FFF7A0FF00214FF48020AB
:10241000FFF79BFF18E0EB48844209D10121C80473
:10242000FFF793FF00214FF40020FFF78EFF0BE032
:10243000E548844208D101210805FFF786FF002105
:102440004FF48010FFF781FF10BD2DE9F04786B0F3
:1024500005460E460024A24600BFA1460027B089CB
:1024600000B100BF2F462C8A4CF6FF700440F08864
:1024700004432C82AC894EF6F3100440B0883189B5
:102480000843718908430443AC81AC8A4FF6FF408E
:102490000440B0890443AC8201A8FFF7C2FEC648DD
:1024A000874202D1DDF810A001E0DDF80CA0A88978
:1024B00000F4004040B10AEBCA0000EB0A1031689A
:1024C0004900B0FBF1F807E00AEBCA0000EB0A1084
:1024D00031688900B0FBF1F86420B8FBF0F004012A
:1024E0002009642101FB1089A88900F4004040B153
:1024F000322000EBC900B0FBF1F000F0070004430C
:1025000008E0322000EB09106421B0FBF1F000F08C
:102510000F0004432C8106B0BDE8F0874FF416513C
:10252000016000218180C18001810C214181002155
:102530008181704710B502460020108A4FF2FF03D8
:1025400018400B884C8823438C882343CC88234332
:102550001843108210BD0021018041808180C1801C
:10256000704721B1828942F40052828104E082895D
:102570004DF6FF731A4082817047F0B50346002480
:1025800000260025002040F66A17B94200D100BF9E
:102590001846C1F3421401F01F06012707FA06F599
:1025A000012C01D10C3004E0022C01D1103000E0EC
:1025B00014301AB107682F43076002E00768AF4381
:1025C0000760F0BD1AB1838A0B43838202E0838ADD
:1025D0008B4383827047028A4FF6F0731A4002825F
:1025E000028A0A430282704782894FF2FF731A40BF
:1025F000828182890A438281704721B1828942F0B7
:102600000202828104E082894FF6FD731A408281C2
:102610007047028A4FF6DF731A400282028A0A4329
:102620000282704721B1028A42F48042028204E0B1
:10263000028A4BF6FF731A4002827047C1F3080208
:102640008280704701468888C0F3080070478189FE
:1026500041F0010181817047028BD2B20283028B6B
:1026600042EA012202837047028B02F47F42028316
:10267000028B0A430283704721B1828A42F0200212
:10268000828204E0828A4FF6DF731A4082827047AA
:1026900021B1828A42F01002828204E0828A4FF6DF
:1026A000EF731A408282704721B1828A42F0080299
:1026B000828204E0828A4FF6F7731A408282704762
:1026C00021B1828942F40042828103E08289C2F30F
:1026D0000E028281704721B1828A42F400628282B6
:1026E00004E0828A4FF2FF731A4082827047828A26
:1026F0004FF6FB731A408282828A0A4382827047B5
:1027000021B1828A42F00202828204E0828A4FF67C
:10271000FD731A408282704702460020B1F5007FA7
:1027200000D100BF13880B400BB1012000E0002056
:10273000704701F40072B2F5007F00D100BFCA43B8
:102740000280704770B50246002400230025002057
:1027500040F66A16B14200D100BFC1F3421501F044
:102760001F03012606FA03F3012D02D19689334097
:1027700006E0022D02D1168A334001E0968A3340EA
:102780000C12012606FA04F41688344013B10CB179
:10279000012000E0002070BD10B50022002340F6AB
:1027A0006A14A14200D100BF0A1201249440A3B2CE
:1027B000DC43048010BD00000038014000440040AC
:1027C00000480040004C00400050004031490143A7
:1027D000314A1160704770B5002100230F22C47880
:1027E00004B32D4C246804F4E064C4F5E064210AC9
:1027F000C1F10403CA40447804FA03F18478144018
:1028000021430901254C0678A155047804F01F05E1
:102810000124AC4005786D11AD0005F1E025C5F847
:10282000004109E0047804F01F050124AC401C4D70
:102830000678761145F8264070BD1A4A0A400243D0
:10284000154B1B1F1A60704739B1134A121D1268CD
:102850000243114B1B1D1A6006E00F4A121D12683D
:1028600082430D4B1B1D1A607047042808D14FF09E
:10287000E021096941F004014FF0E022116107E015
:102880004FF0E021096921F004014FF0E0221161CD
:10289000704700000000FA050CED00E000E400E0E5
:1028A00080E100E080FFFF1F10B50446FE4884422F
:1028B00008D10121C014FFF73BFD0021E014FFF710
:1028C00037FDC4E0B4F1804F08D101210846FFF77D
:1028D0003CFD00210120FFF738FDB8E0F3488442B9
:1028E00008D101210220FFF730FD00210220FFF76F
:1028F0002CFDACE0EE48844208D101210420FFF712
:1029000024FD00210420FFF720FDA0E0E9488442D7
:1029100008D101210820FFF718FD00210820FFF74A
:1029200014FD94E0E448844208D101211020FFF70F
:102930000CFD00211020FFF708FD88E0DF488442ED
:1029400008D101212020FFF700FD00212020FFF702
:10295000FCFC7CE0DA48844208D101214014FFF7F6
:10296000E7FC00216014FFF7E3FC70E0D5488442E7
:1029700009D10121C804FFF7DBFC00214FF400203E
:10298000FFF7D6FC63E0D048844209D10121080555
:10299000FFF7CEFC00214FF48010FFF7C9FC56E092
:1029A000CA48844209D101214805FFF7C1FC002132
:1029B0004FF40010FFF7BCFC49E0C548844208D141
:1029C00001214020FFF7C1FC00214020FFF7BDFCA2
:1029D0003DE0C048844208D101218020FFF7B5FCCA
:1029E00000218020FFF7B1FC31E0BB48844208D1D0
:1029F00001218015FFF7A9FC0021A015FFF7A5FC18
:102A000025E0B648844209D101210804FFF790FC73
:102A100000214FF48030FFF78BFC18E0B04884426F
:102A200009D101214804FFF783FC00214FF4003055
:102A3000FFF77EFC0BE0AB48844208D101218804FB
:102A4000FFF776FC00214FF48020FFF771FC10BDEA
:102A500000220288944B98420ED0994B98420BD09A
:102A6000B0F1804F08D0914B984205D0904B9842DE
:102A700002D0904B984204D14FF68F731A404B8886
:102A80001A438D4B984207D08C4B984204D04FF696
:102A9000FF431A40CB881A4302808B8883850B88BA
:102AA0000385814B98420BD0854B984208D08B4BC5
:102AB000984205D08A4B984202D08A4B984201D165
:102AC0000B7A038601238382704770B500240022AD
:102AD0000023058C4FF6FE7635400584028C8388F2
:102AE000048B4FF68F752C40B51E2C400D882C435F
:102AF000751E2A400D892A434D882A436A4DA842F3
:102B00000BD06F4DA84208D0744DA84205D0744D2B
:102B1000A84202D0734DA84213D14FF6F7752A4050
:102B20004D892A434FF6FB752A408D882A434FF67C
:102B3000FF652B404FF6FF552B408D892B43CD89E8
:102B40002B4383800483CD888586028470BD70B555
:102B5000002400220023058C4FF6EF7635400584D3
:102B6000028C8388048B48F6FF752C404FF6FF4596
:102B70002C400D884FF6FF7606EA05252C434FF6CC
:102B8000DF752A400D8906EA05152A434D8806EAB5
:102B900005152A43444DA84202D0494DA8421DD1F3
:102BA0004FF67F752A404D894FF6FF7606EA0515E8
:102BB0002A434FF6BF752A408D8806EA05152A4339
:102BC0004FF6FF352B404FF2FF752B408D8906EAFB
:102BD00085052B43CD8906EA85052B438380048335
:102BE000CD880587028470BD70B5002400220023C3
:102BF000058C4FF6FF6635400584028C8388848BF4
:102C00004FF68F752C404FF6FC752C400D882C43E9
:102C10004FF6FF552A400D894FF6FF7606EA052547
:102C20002A434D8806EA05252A431F4DA84202D0B3
:102C3000234DA8421DD14FF2FF752A404D894FF612
:102C4000FF7606EA05252A434FF6FF352A408D8890
:102C500006EA05252A434EF6FF752B404DF6FF7513
:102C60002B408D8906EA05152B43CD8906EA05150B
:102C70002B4383808483CD888587028470BD70B5A3
:102C8000002200230024058C4EF6FF763540058493
:102C9000038C8488828B48F6FF752A404FF6FF45E7
:102CA0002A400D8820E00000002C01400004004074
:102CB00000080040000C00400010004000140040DC
:102CC00000340140004C01400050014000540140DC
:102CD00000180040001C004000200040004001405F
:102CE00000440140004801404FF6FF7606EA052502
:102CF0002A434DF6FF752B400D8906EA05352B4317
:102D00004D8806EA05352B43FA4DA84202D0FA4D0C
:102D1000A84208D14BF6FF752C408D894FF6FF76FF
:102D200006EA85152C4384808283CD88A0F8405024
:102D3000038470BD828B4FF2FF331A408283828BF3
:102D40004FF6FF7303EA01231A4382837047F0B5FD
:102D50000C461546002200210026078C4EF6FF7C0B
:102D600007EA0C070784828B018C4FF6FF7707EA8E
:102D7000043640F6FF473A404FF6FF7707EA05274B
:102D80003A434FF6FF7707EA03373A43D94FB84241
:102D90000ED0D94FB8420BD0B0F1804F08D0D74FEA
:102DA000B84205D0D64FB84202D0D64FB84206D16D
:102DB0004DF6FF77394046F48057394305E047F632
:102DC000FF57394044F48057394382830184F0BD72
:102DD000828B4FF6F3731A408283828B0A4382837D
:102DE0007047F0B50C461546002200210026078CDE
:102DF0004FF6FF6C07EA0C070784828B018C4FF6B5
:102E0000FF7707EA04264FF60C773A404FF6FF7734
:102E100007EA03172F433A43B64FB8420ED0B64FD6
:102E2000B8420BD0B0F1804F08D0B44FB84205D0B3
:102E3000B34FB84202D0B34FB84206D14FF6FF5756
:102E4000394046F48077394305E04FF2FF57394067
:102E500044F48077394382830184F0BD028B4FF2C2
:102E6000FF331A400283028B4FF6FF7303EA0123FC
:102E70001A4302837047F0B50C4615460022002124
:102E80000026078C4FF6EF7C07EA0C070784028BBD
:102E9000018C4FF6FF7707EA041640F6FF473A40E9
:102EA0004FF6FF7707EA03373A434FF6FF7707EA13
:102EB00005273A438F4FB8420ED08F4FB8420BD000
:102EC000B0F1804F08D08D4FB84205D08C4FB8423A
:102ED00002D08C4FB84206D14FF6DF77394046F02A
:102EE0001007394305E04FF65F77394044F010078B
:102EF000394302830184F0BD028B4FF6F3731A400D
:102F00000283028B0A4302837047F0B50C461546D4
:102F100000220021068C4FF6FE773E400684028B8D
:102F2000018C4FF60C7632407E1C06EA03162E43C7
:102F30003243704EB0420ED06F4EB0420BD0B0F163
:102F4000804F08D06D4EB04205D06D4EB04202D0D9
:102F50006C4EB04206D14FF6FD76314044F001068A
:102F6000314305E04FF6F576314044F00106314338
:102F700002830184F0BD70B505460C465D4885426C
:102F80000ED05D4885420BD0B5F1804F08D05B482C
:102F9000854205D05A48854202D05A48854200D120
:102FA00000E000BF208850B92389A28861882846A4
:102FB000FFF7ABFFE1882846FFF79EFF25E020885A
:102FC00004280AD12389A28861882846FFF753FF85
:102FD000E1882846FFF742FF17E0208808280AD139
:102FE0002389A28861882846FFF7FBFEE1882846EE
:102FF000FFF7EEFE09E02389A28861882846FFF7E3
:10300000A6FEE1882846FFF795FE70BD2DE9F04148
:1030100005460C4600260127608808B9022600E014
:103020000026A088012801D1022700E0012720887E
:10303000A0B92389A28861882846FFF766FFE18846
:103040002846FFF759FF23893A4631462846FFF7BD
:1030500012FFE1882846FFF701FF13E02389A288C9
:1030600061882846FFF707FFE1882846FFF7F6FE4C
:1030700023893A4631462846FFF747FFE18828462C
:10308000FFF73AFFBDE8F0810A884B881A438B8826
:103090001A43CB881A430B891A434B891A438B89ED
:1030A0001A43A0F8442070474FF6FF718180002139
:1030B0000180C18041800172704700210180418000
:1030C0008180C180018141818181C181704700215E
:1030D00001804180012181800021C18001817047F0
:1030E0000021018041808180C180018141818181F5
:1030F00070470000002C01400034014000040040F3
:1031000000080040000C004021B1028842F001029A
:10311000028004E002884FF6FE731A400280704776
:1031200031B1B0F8442042F40042A0F8442005E058
:10313000B0F84420C2F30E02A0F8442070471AB140
:1031400083890B43838102E083898B4383817047AA
:103150008182704741EA0203A0F8483070471AB1F3
:1031600083890B43838102E083898B43838170478A
:1031700001894FF6F8721140018170470A4600211B
:1031800001894FF68F73194011430181704730B5A3
:1031900004460D4629462046FFF7F0FF208940F0FF
:1031A0000700208130BD2DE9F04104460D4616464A
:1031B0001F46602D06D13B46012231462046FFF7CF
:1031C0005AFE05E03B46012231462046FFF79DFEB0
:1031D00029462046FFF7D2FF208940F007002081D2
:1031E000BDE8F08130B50C4600210189C9B24FF627
:1031F000FF7505EA0325154325432943018130BDA9
:103200002DE9F04105460E461746984600244346F0
:103210003A4631462846FFF7E5FF2C894FF6F8700D
:10322000044044F007044FF68F70044044F07004EB
:103230002C81BDE8F081F0B504460D4616461F46C8
:103240003B46324629462046FFF7CCFF208940F412
:1032500080402081F0BD0185828270470A460021AE
:1032600001884FF68F731940114301807047F0B504
:103270000C4615461E460021002200230189028BC0
:10328000038C4FF6F877394021434FF6FC473A401C
:1032900040F201173A434FF6DD773B404FF6FF7798
:1032A00007EA06172F433B43018102830384F0BDE5
:1032B0000A460021018B4FF68F7319401143018399
:1032C00070470A460021018B48F6FF7319404FF6FC
:1032D000FF7303EA02231943018370470A46002162
:1032E000818B4FF68F7319401143818370470A46D3
:1032F0000021818B48F6FF7319404FF6FF7303EAF4
:10330000022319438183704721B1028842F0800271
:10331000028004E002884FF67F731A4002807047F3
:1033200021B1828842F00402828004E082884FF654
:10333000FB731A408280704721B1828842F00802F4
:10334000828004E082884FF6F7731A4082807047CB
:1033500021B1828842F00102828004E082884FF627
:10336000FE731A40828070470A460021018B4FF697
:10337000F77319401143018370470A460021018BFE
:103380004FF2FF7319404FF6FF7303EA022319430C
:10339000018370470A460021818B4FF6F77319406D
:1033A0001143818370470A460021818B4FF2FF73DE
:1033B00019404FF6FF7303EA0223194381837047D4
:1033C0000A460021018B4FF6FB731940114301831C
:1033D00070470A460021018B4FF6FF3319404FF624
:1033E000FF7303EA02231943018370470A46002151
:1033F000818B4FF6FB7319401143818370470A4656
:103400000021818B4FF6FF3319404FF6FF7303EA1B
:1034100002231943818370470A460021018B4FF62E
:103420007F7319401143018370470A460021018BC5
:10343000C1F30E014FF6FF7303EA02231943018320
:1034400070470A460021818B4FF67F731940114364
:10345000818370470A460021818BC1F30E014FF62C
:10346000FF7303EA02231943818370470A46002150
:10347000018C4FF6FD7319401143018470470A46D1
:103480000021018C4FF6F7731940114301847047F6
:103490000A460021018C4FF6DF7319404FF6FF7387
:1034A00003EA02131943018470470A460021018C84
:1034B0004FF67F7319404FF6FF7303EA0213194367
:1034C000018470470A460021018C4FF6FF531940D2
:1034D0004FF6FF7303EA02231943018470470A463B
:1034E0000021018C4FF2FF7319404FF6FF7303EA7E
:1034F00002231943018470470A460021018C4DF6CE
:10350000FF7319404FF6FF7303EA02331943018436
:10351000704730B5002301248C40A3B2048C9C4337
:103520000484048C02FA01F5ADB22C43048430BD4E
:1035300030B5002304248C40A3B2048C9C43048443
:10354000048C02FA01F5ADB22C43048430BD70B591
:103550000346002000241846183001258D40ACB2E7
:103560001D8CA5431D8409B1082909D100EB610018
:10357000056825F0700505600568154305600EE0D7
:103580000D1FC5F34E052844056825F4E045056088
:1035900005684FF6FF7606EA02263543056070BDE2
:1035A00021B1028842F00202028004E002884FF654
:1035B000FD731A400280704721B1028842F0040274
:1035C000028004E002884FF6FB731A4002807047C5
:1035D00021B1828842F08002828004E082884FF626
:1035E0007F731A408280704702884FF6F7731A4043
:1035F000028002880A430280704782884FF68F73E8
:103600001A40828082880A438280704702894FF67E
:10361000F8731A40028102890A43028170470289C5
:103620004FF67F731A40028102890A430281704774
:103630008184704781857047818670470187704714
:1036400081877047A0F84010704702884FF6FF430B
:103650001A40028002880A43028070470146888E21
:1036600070470146088F70470146888F70470146B2
:10367000B1F8400070470146888C70470146088DBC
:10368000704702460020138A0B400BB1012000E076
:1036900000207047CA430282704730B502460020BE
:1036A00000230024158A05EA0103958905EA01042F
:1036B00013B10CB1012000E0002030BDCA430282EA
:1036C0007047000010B54FF48061944803F07FFD0F
:1036D00000209349088010BD9148008808B9012056
:1036E00070478F4800888F490988884203D100209D
:1036F0008B490880F4E78A4800888A4908800120BD
:10370000EEE72DE9F04104460D46C826204603F0B9
:103710007DFC87B23A4621468348FEF741F90FE027
:10372000FFF7DAFF48B929467C4803F039FC20B19D
:10373000FFF7C8FF0020BDE8F0810A20FEF75FF820
:103740003000A6F10101CEB2EAD10120F3E730B595
:1037500089B004460D46FFF7B5FF2A4673A101A8BC
:1037600003F026FA75A101A8FFF7CBFF20B92A467E
:1037700021466D48FEF714F909B030BD70B5054615
:10378000002400BFFFF7A8FF80B96DA1634803F0D4
:1037900007FC044654B13A21204603F0E5FB0446F9
:1037A00014B1641C204670BD0020FCE70520FEF724
:1037B00026F8681E85B2002DE4DC0020F3E708B58A
:1037C00001210820FEF79AFD4FF48070ADF800004B
:1037D00010208DF8030003208DF8020069465A4836
:1037E000FEF7D0FA00224FF480715748FEF77BFBBA
:1037F000FA20FEF704F8012211025348FEF773FB8A
:103800004FF4FA70FDF7FBFFFFF75CFF4FA0FEF7E8
:1038100004F903E04FF4FA70FDF7F1FF52A153A051
:10382000FFF76FFF0028F5D152A0FEF7F6F845A18B
:1038300056A0FFF766FF4FF4FA70FDF7E0FF41A1D5
:1038400055A0FFF75EFF4FF4FA70FDF7D8FF56A0C2
:10385000FEF7E3F803E04FF4FA70FDF7D0FF42A162
:103860005CA0FFF74EFF0028F5D15EA0FEF7D5F86B
:1038700003E04FF4FA70FDF7C2FF3BA163A0FFF72E
:1038800040FF0028F5D165A267A169A0FEF7C5F841
:1038900003E04FF4FA70FDF7B2FF75A176A0FFF7D1
:1038A00030FF0028F5D17DA27EA182A0FEF7B5F8F9
:1038B00003E04FF4FA70FDF7A2FF89A18AA0FFF799
:1038C00020FF0028F5D101209249087092A0FEF750
:1038D000A4F89BA0FEF7A1F808BD10B540F2255151
:1038E0001148FEF72FFFB8B10D480088B0F5806F82
:1038F00002D300200A4908800B48001D0088C1B28D
:10390000074802880088401C054B188003488154F2
:1039100020210548FEF70DFF10BD00002C060020F9
:1039200046000020480000200044004041542B4342
:10393000495053454E443D25640D0A003E000000A9
:103940004950442C00000000000C0140302E204162
:1039500054202D20B2E2CAD44D43552D383236368C
:10396000CDA8D1B6000000004F4B000041540D0A15
:1039700000000000312E2041542B525354202D20A2
:10398000C8EDB8B4CEBB38323636000041542B52A5
:1039900053540D0A0000000041542B434950434C3E
:1039A0004F53450D0A000000322E2041542B43573F
:1039B0004D4F44453D312C31202D20C9E8D6C33828
:1039C000323636B9A4D7F7C4A3CABDCEAA535441E0
:1039D0000000000041542B43574D4F44453D310DED
:1039E0000A000000332E2041542B435744484350D3
:1039F0003D312C31202D20CAB9C4DC535441C4A31D
:103A0000CABDCFC2444843500000000041542B437C
:103A100057444843503D312C310D0A004A77646CBD
:103A2000685F303632342E004A77646C68000000DC
:103A3000342E2041542B43574A4150202D20C1ACF5
:103A4000BDD357494649202D3E205B20535349445E
:103A50003A202573205D20202D3E205B205061738D
:103A600073776F72643A202573205D200000000098
:103A7000474F54204950000041542B43574A41506E
:103A80003D224A77646C68222C224A77646C685F16
:103A9000303632342E220D0A00000000313838331F
:103AA0000000000062726F6B65722E656D71782E7A
:103AB000696F0000352E2041542B43495053544127
:103AC0005254202D20C1ACBDD3B7FECEF1C6F72095
:103AD0002D3E205B2025733A2573205D00000000F9
:103AE000434F4E4E4543540041542B434950535489
:103AF0004152543D22544350222C2262726F6B6516
:103B0000722E656D71782E696F222C313838330D25
:103B10000A00000014000020362E20455350383291
:103B2000363620496E6974204F4B202D2045535066
:103B300038323636B3F5CABCBBAFB3C9B9A600003C
:103B400045535038323636B3F5CABCBBAF09090904
:103B50005B4F4B5D0000000070B504460E4600252B
:103B6000206898B901202073304602F0A3FF20603E
:103B70002068E0B100206060A66003E000202168BA
:103B800048556D1CA068A842F8D810E002202073A8
:103B900003E00020216848556D1CA068A842F8D8B1
:103BA00000206060A068B04201D20020206070BD9B
:103BB00010B50446207B012802D1206802F0A9FF3D
:103BC000002020606060A060207310BD02460023CA
:103BD00001230DE002F07F000870D2092AB10878B5
:103BE00040F080000870491C01E0184670475B1CDB
:103BF000042BEFDD4FF0FF30F8E7F0B504460D463B
:103C00002646012300201060002114E0775C07F0B5
:103C10007F07106807FB03001060705C00F08000F5
:103C200008B9481CF0BDDB01B3F5001F02D36FF0EB
:103C30000100F7E7491CA942E8DB4FF0FF30F1E74C
:103C4000F8B50446FF2720780511012D01DB0E2D64
:103C500001DD3846F8BD032D24D1002000906A46CE
:103C60000421601CFFF7C9FF2044461C009802286D
:103C700003D3207800F0010008B1FF20EAE7707854
:103C8000317840EA0120801C0099884201D9FF2048
:103C9000E0E7F8A1B01C03F083F908B10F2700E0BA
:103CA000032700E02F463846D4E72DE9FF4F83B0C5
:103CB00082468B469146159C0025002002900F27D6
:103CC0000190484603F0A2F90FFA80F8B9F1000F0D
:103CD00003D1012007B0BDE8F08F08F1020038449D
:103CE00087B2109808B145F00205129878B145F0F6
:103CF0000405129803F08AF9C0B20290139803F0F9
:103D000085F901460298001D0844384487B211988D
:103D100020B1012804D0022808D104E000BF07E048
:103D200045F00C0504E045F0140501E00220D1E760
:103D300000BF149808B145F02405BAF1000F02D075
:103D4000BBF1000F01D10320C4E745F0C005504688
:103D500003F05CF90646584603F058F93044001D5C
:103D6000384487B239462046FFF7F6FE206808B986
:103D70000420AFE73946206803F029FA1021626871
:103D8000501C606020688154D4E90023D118781F4A
:103D9000FFF71CFF00B201900198002804DA2046CA
:103DA000FFF706FF052095E7616801980844606009
:103DB00000216268501C60602068815404216268A0
:103DC000501C6060206881544D216268501C606006
:103DD0002068815451216268501C606020688154C1
:103DE00054216268501C6060206881546268501CD5
:103DF00060602068815404216268501C6060206803
:103E000081546168481C6060206845540698010A26
:103E10006268501C6060206881540698C1B2626874
:103E2000501C606020688154C8F307216268501CF0
:103E30006060206881546268501C6060206800F8EF
:103E40000280D4E9001288184246494603F096F8E9
:103E500060684044606005F00400B8B30026139821
:103E600008B986A01390129803F0D0F886B2310AF0
:103E70006268501C6060206881546268501C6060F9
:103E800020688654D4E9001288183246129903F04B
:103E900075F8606830446060139803F0B7F886B234
:103EA000310A6268501C6060206881546268501C4E
:103EB000606020688654D4E900128818324613994D
:103EC00003F05CF860683044606000BF05F080007B
:103ED000C8B1504603F09AF886B2310A6268501CA5
:103EE0006060206881546268501C6060206886545D
:103EF000D4E9001288183246514603F03FF8606852
:103F00003044606000BF05F04000C8B1584603F07F
:103F10007DF886B2310A6268501C60602068815466
:103F20006268501C606020688654D4E900128818CA
:103F30003246594603F022F860683044606000BFA2
:103F40000020C7E610B5044602212046FFF704FE14
:103F5000206808B9012010BDE0216268501C606033
:103F60002068815400216268501C60602068815480
:103F70000020F0E701464878022801D00120704770
:103F8000887810B18878012801D1C878F7E7FF2038
:103F9000F5E72DE9FF4F83B0834617469946139CFA
:103FA000002500260020029001908046BBF1000F02
:103FB00003D1012007B0BDE8F08F00260AE0049885
:103FC000805D232803D00498805D2B2801D1022036
:103FD000F0E7761C0498805D0028F0D148F03008A6
:103FE000119808B148F0010806EB0900851C1098EB
:103FF00020B1012804D002280AD105E000BF09E061
:1040000048F00208AD1C05E048F00408AD1C01E0D2
:104010000320CFE700BF67B33878022821D14FF0E3
:10402000000A00BF50460AF1010A385C7D28F9D128
:10403000AAF1030A0AF1070002900298A9EB000A0C
:10404000E81CA0EB0A012046FFF786FD206808B9AE
:104050000420AFE7EA1CA2EB0A01206803F0B7F8DE
:104060001FE0691D2046FFF777FD206840B9042056
:10407000A0E70AE024637265710000000000000000
:10408000691D206803F0A3F80BE0691D2046FFF7C7
:1040900063FD206808B904208CE7691D206803F0DF
:1040A00096F86168481C6060206800F80180D4E9D7
:1040B000000281182846FFF789FD01900198002829
:1040C00004DA2046FFF774FD052073E76168019864
:1040D00008446060C6F307216268501C6060206875
:1040E00081546268501C606020688654D4E90012D4
:1040F00088183246049902F041FF606830446060DD
:10410000109860B14FEA1B216268501C6060206803
:1041100081546268501C6060206800F802B0C7B12A
:10412000387802280BD1D4E9001288183946029A4F
:1041300002F0D6FF616802980844606009E0D4E9A3
:10414000001288184A46394602F0CAFF606848449F
:10415000606000202EE72DE9FF4107460D4690469E
:104160001E460A9C01200021CDE90001EB1C0A46F5
:10417000FAA1CDE902040A20FFF70BFF88B96168B4
:10418000481C606020684654C5F307216268501CD3
:104190006060206881546268501C606020688554AB
:1041A00003E0012004B0BDE8F0810020FAE72DE92A
:1041B000F04F85B080460D469146012004900027BF
:1041C000002600244FF0000A404602F01FFF00F1D5
:1041D0000D0B584602F06EFC07461FB9049805B057
:1041E000BDE8F08F4246DEA1384602F0E1FC3846D9
:1041F00002F00CFFC6B2F01D00EB050AAAEB0500A9
:1042000002F058FC044624B9384602F082FC0498B7
:10421000E5E70220207000206070A6703246394623
:10422000E01C02F05DFF290EF01C2154C5F307418C
:10423000301D2154C5F30721701D2154B01D255494
:1042400001200021CDE9000153462246C3A1CDE95A
:1042500002090A20FFF79DFE08B9002004903846A5
:1042600002F057FC204602F054FC0498B7E72DE911
:10427000F84380460C4615461E462F2108F10600DD
:1042800002F072FE07460020009017B90120BDE839
:10429000F8837F1C6A46042108F10100FFF7ADFC9A
:1042A000252002F007FC2060206808B90220EEE714
:1042B0002521206802F08BFF24223946206802F075
:1042C0000FFF243700982C3830803188481C02F0CA
:1042D000F1FB2860286820B9206802F01AFC03204E
:1042E000D5E73288511C286802F071FF32883946C0
:1042F000286802F0F5FE0020C9E72DE9FF5F0746B8
:104300000D469046384602F081FE86B2284602F0FD
:104310007DFE1FFA80FA4FF00009F01D02F0CAFB83
:1043200004461CB9012004B0BDE8F09FF11D2046F1
:1043300002F04DFF8EA0016821608088A080324687
:104340003946204602F01AFE284602F05FFE8346F8
:104350000120002100915B462A46CDE90208019127
:1043600021460A20FFF715FE10B94FF0000901E0C1
:104370004FF00109204602F0CCFB4846D3E72DE977
:10438000FF5F8046174699460E9C0026B246B3460C
:104390000025B8F1000F03D1012004B0BDE8F09F63
:1043A0000BE057F8250008B90220F6E757F825007A
:1043B00002F02CFE0644681CC5B24D45F1DB09EB4A
:1043C0004900801C00EB060A0AF105012046FFF7B0
:1043D000C3FB206808B90320DFE782216268501C14
:1043E000606020688154D4E9000281185046FFF7CC
:1043F000EDFB0FFA80FBBBF1000F04DA2046FFF75C
:10440000D7FB0420C9E76068584460604FEA182170
:104410006268501C6060206881546268501C606053
:10442000206800F80280002524E057F8250002F0FB
:10443000EDFD0646C6F307216268501C60602068E7
:1044400081546268501C606020688654D4E900235F
:10445000D01857F82510324602F090FD60683044BD
:1044600060600198C1B26268501C6060206881542D
:10447000681CC5B24D45D8DB00208EE70146FF2001
:104480008A78A2B9CA78142A11D10A7932B1012ADC
:1044900005D0022A04D0802A06D103E000BF00BF65
:1044A000002003E0012001E0022000BF00BF7047B0
:1044B0002DE9F05F80460F4691461C460026B24625
:1044C000B3460025B8F1000F02D10120BDE8F09FEE
:1044D0000BE057F8250008B90220F7E757F8250048
:1044E00002F094FD0644681CC5B24D45F1DB022084
:1044F00000EB490000EB060A0AF105012046FFF730
:104500002BFB206808B90320E0E7A2216268501C59
:10451000606020688154D4E9000281185046FFF79A
:1045200055FB0FFA80FBBBF1000F04DA2046FFF7C2
:104530003FFB0420CAE76068584460604FEA1821D6
:104540006268501C6060206881546268501C606022
:10455000206800F8028000252CE000002464700030
:104560007B2264735F6964223A222573227D0000F6
:1045700024637273702F000057F8250002F046FD87
:104580000646C6F307216268501C606020688154AB
:104590006268501C606020688654D4E90023D018FB
:1045A00057F82510324602F0E9FC6068304460603C
:1045B000681CC5B24D45DFDB002087E701460120BE
:1045C0008A781AB9CA781E2A00D1002070472DE9CE
:1045D000FC5F81460D4614461E46DDE90C8B99F8BA
:1045E000000000F00F0A002001900AF0080000907F
:1045F000CAF341008BF8000001AA042109F101006F
:10460000FFF7FBFA4844471C0198022802D30AF03E
:10461000010010B1FF20BDE8FC9F7878397840EAAE
:10462000012020802088801C0199884201D9FF2028
:10463000F1E7AFF2C051B81C02F0B2FC08B10F2094
:10464000E9E79BF8000020B101283DD0022877D18E
:104650003BE0009808B1FF20DDE72188481C02F00C
:1046600029FA2860286808B9FF20D4E72288511C5D
:10467000286802F0ACFD2288B91C286802F030FDE1
:104680000198801E2188401AA8F80000B8F8001090
:10469000481C02F00FFA3060306820B9286802F038
:1046A00038FAFF20B7E7B8F80020511C306802F054
:1046B0008EFDB8F80020B4F800C0BB1C0CEB030161
:1046C000306802F00DFD4FE000BF2088801C01998A
:1046D000884201D9FF209EE72088C01C395C2088D1
:1046E000801C385C41EA00210E9801800E9808B9C0
:1046F000FF2090E72188481C02F0DCF92860286838
:1047000008B9FF2087E72288511C286802F05FFD66
:104710002288B91C286802F0E3FC0198001F218858
:10472000401AA8F80000B8F80010481C02F0C2F9BE
:104730003060306828B9286802F0EBF9FF206AE79A
:1047400010E0B8F80020511C306802F040FDB8F8C5
:104750000020B4F800C03B1D0CEB0301306802F0F0
:10476000BFFC01E0FF2056E700BF2B21284602F0E6
:10477000FBFB20B92321284602F0F6FB08B1FF20FD
:1047800049E7002047E770B505460C46042120465E
:10479000FFF7E2F9206808B9012070BD4021626886
:1047A000501C60602068815402216268501C606067
:1047B0002068815429126268501C6060206881540E
:1047C0006268501C6060206885540020E5E701465F
:1047D0004878022801D001207047887820B9C8782D
:1047E0000A2801D10020F7E70120F5E770B505465A
:1047F0000C4604212046FFF7AFF9206808B90120D4
:1048000070BD50216268501C606020688154022194
:104810006268501C60602068815429126268501CD4
:104820006060206881546268501C60602068855414
:104830000020E5E701464878022801D001207047B2
:10484000887820B9C8780A2801D10020F7E701202C
:10485000F5E770B505460C4604212046FFF77CF9C4
:10486000206808B9012070BD62216268501C606038
:104870002068815402216268501C60602068815465
:1048800029126268501C6060206881546268501C64
:104890006060206885540020E5E7024650780228D1
:1048A00001D0012070479078B0EB112F05D1D0785E
:1048B000CBB2984201D10020F4E70120F2E770B5B5
:1048C00005460C4604212046FFF746F9206808B942
:1048D000012070BD70216268501C606020688154A6
:1048E00002216268501C606020688154291262684D
:1048F000501C6060206881546268501C60602068B1
:1049000085540020E5E701464878022801D00120BF
:104910007047887820B9C8780A2801D10020F7E7C5
:104920000120F5E710B5044602212046FFF714F9EF
:10493000206808B9012010BDC0216268501C606069
:104940002068815400216268501C60602068815496
:104950000020F0E730B58BB0002007900890099058
:104960000A900125E0A0E2A3E3A2E5A10090F048AF
:10497000FDF72FF807A8002102910391CDE904105B
:1049800000912B02D8A20191D9A1DBA0FFF78DF9EC
:10499000002842D1089A91B20798FEF7D8FEFA2073
:1049A000FEF7ECFE0446002C33D02046FFF748F912
:1049B00002282ED12046FFF7DDFA062823D2DFE8B1
:1049C00000F003090E13181DDAA1D948FDF701F80C
:1049D00000251DE0DCA1D648FCF7FBFF18E0E1A1B3
:1049E000D348FCF7F6FF13E0E7A1D148FCF7F1FF4D
:1049F0000EE0EDA1CE48FCF7ECFF09E0F3A1CC48B6
:104A0000FCF7E7FF04E0FCA1C948FCF7E2FF00BFA8
:104A100000BF07A8FFF7CCF803E0FEA1C448FCF7ED
:104A2000D8FF28460BB030BD70B586B004460D46A1
:104A300000260020029003900490059007E054F8AF
:104A40002620FDA1BA48FCF7C4FF701CC6B2AE42D6
:104A5000F5DB02A82B462246022100901420FFF726
:104A60008EFC38B9039A91B20298FEF770FE02A844
:104A7000FFF79EF806B070BD70B588B005460C46CD
:104A80000020049005900690079023462A46F0A146
:104A9000A748FCF79EFF204602F0B8FA064604A895
:104AA000012100220223CDE90032CDE90210334674
:104AB000224629460A20FFF76CFA38B9059A91B2C6
:104AC0000498FEF744FE04A8FFF772F808B070BD22
:104AD0002DE9F04F8FB0814600200B900C900D9087
:104AE0000E900A90099008900790002606900025E5
:104AF000002482464846FFF7A3F80646F01E0D281C
:104B00007ED2DFE800F01C606985A1C6AAC6B8C6DF
:104B1000C6C6070007AB0AAA09A94846FFF7A7FBC4
:104B200005465DB9BDF81C000090D1A18048DDE9C3
:104B30000923FCF74EFF0BA8FFF73AF8ACE0D54885
:104B400006A907AA0AABCDE90021029008AA09A983
:104B50004846FFF73CFD0546002D33D1BDF81C004B
:104B60000A99CDE90010BDF82030CBA17048099A10
:104B7000FCF72FFF0A9801F0BFF8074647B900F08D
:104B800053FA83465A46D3A16948FCF722FF19E03D
:104B9000D5A1384601F0B7FC80464246D3A164480F
:104BA000FCF717FFD8F8140018B10020D4490860AA
:104BB00002E00120D2490860384600F098FA0BA8BC
:104BC000FEF7F6FF68E04846FFF701FE18B9CDA1F1
:104BD0005748FCF7FEFE5FE04846FFF72BFEB0B9F2
:104BE000D0A15348FCF7F5FE0BA90A20FFF731FED0
:104BF00068B9D2A14E48FCF7ECFE0C9A91B200E0E5
:104C000047E00B98FEF7A3FD0BA8FEF7D1FF43E0AA
:104C1000A04801884846FFF740FEA0B9CDA144480E
:104C2000FCF7D7FE0BA90A20FFF749FE58B9CFA120
:104C30003F48FCF7CEFE0C9A91B20B98FEF787FD29
:104C40000BA8FEF7B5FF27E04846FFF75CFE18B952
:104C5000CDA13748FCF7BDFE1EE04846FFF70EFC2D
:104C600020B9CFA13248FCF7B4FE03E0D3A130480D
:104C7000FCF7AFFE10E04846FFF7A0FC20B9D6A134
:104C80002B48FCF7A6FE03E0DAA12948FCF7A1FEB9
:104C900002E04FF0FF3500BF00BFFEF713FD681CB8
:104CA00010B90FB0BDE8F08F7D210A9802F05CF9D1
:104CB0000446A4B1681C90B1641C06E014F8012BF2
:104CC00050460AF1010A03A90A542078302802DB71
:104CD00020783928F2DD03A802F01AF982460F2E57
:104CE00000D097E198E1000035363136383339008D
:104CF00074657374000000003737323437000000E9
:104D00004F6E654E65745F4465764C696E6B0D0A37
:104D100050524F49443A2025732C09415549463A8F
:104D20002025732C0944455649443A25730D0A0041
:104D300000380140546970733A09C1ACBDD3B3C99E
:104D4000B9A60D0A000000005741524E3A09C1AC05
:104D5000BDD3CAA7B0DCA3BAD0ADD2E9B4EDCEF3CF
:104D60000D0A00005741524E3A09C1ACBDD3CAA743
:104D7000B0DCA3BAB7C7B7A8B5C4636C69656E7475
:104D800069640D0A000000005741524E3A09C1AC57
:104D9000BDD3CAA7B0DCA3BAB7FECEF1C6F7CAA787
:104DA000B0DC0D0A000000005741524E3A09C1AC78
:104DB000BDD3CAA7B0DCA3BAD3C3BBA7C3FBBBF2A6
:104DC000C3DCC2EBB4EDCEF30D0A00005741524EE6
:104DD0003A09C1ACBDD3CAA7B0DCA3BAB7C7B7A85C
:104DE000C1B4BDD328B1C8C8E7746F6B656EB7C7CF
:104DF000B7A8290D0A0000004552523A09C1ACBDBE
:104E0000D3CAA7B0DCA3BACEB4D6AAB4EDCEF30D04
:104E10000A0000005741524E3A094D5154545F5018
:104E200061636B6574436F6E6E6563742046616980
:104E30006C65640D0A0000005375627363726962E9
:104E40006520546F7069633A2025730D0A000000D5
:104E50005075626C69736820546F7069633A2025DD
:104E6000732C204D73673A2025730D0A0000000053
:104E7000636D6469643A2025732C207265713A2051
:104E800025732C207265715F6C656E3A2025640D68
:104E90000A0000004A000020746F7069633A202500
:104EA000732C20746F7069635F6C656E3A202564A3
:104EB0002C207061796C6F61643A2025732C20700E
:104EC00061796C6F61645F6C656E3A2025640D0AD0
:104ED000000000004572726F72206265666F726535
:104EE0003A205B25735D0A004C6564006A736F6E3F
:104EF0005F76616C7565203D2025640D0A00000019
:104F000090012142546970733A094D515454205014
:104F100075626C6973682053656E64204F4B0D0A8F
:104F200000000000546970733A095265762050758C
:104F3000626C6973685265630D0A0000546970738E
:104F40003A0953656E64205075626C6973685265E6
:104F50006C0D0A00546970733A09526576205075D9
:104F6000626C69736852656C0D0A00005469707355
:104F70003A0953656E64205075626C697368436FBB
:104F80006D700D0A00000000546970733A09526593
:104F900076205075626C697368436F6D700D0A00FE
:104FA000546970733A094D515454205375627363B8
:104FB00072696265204F4B0D0A00000054697073DE
:104FC0003A094D5154542053756273637269626596
:104FD000204572720D0A0000546970733A094D51F0
:104FE000545420556E537562736372696265204F25
:104FF0004B0D0A00546970733A094D5154542055B1
:105000006E537562736372696265204572720D0A30
:1050100000000000032E05D1099801F07AFD0A98DE
:1050200001F077FD00BF3CE6FE480068704770B5B0
:1050300004460D462CB9AC4201D0012070BD0020C1
:10504000FCE70DB90120F9E705E0207808B9002058
:10505000F4E7641C6D1C207801F082FD0646287878
:1050600001F07EFD8642F0D0207801F079FD064601
:10507000287801F075FD301AE0E770B50446204647
:1050800001F0C4FF451C2846E749096888470646E1
:105090000EB9002070BD2A462146304602F020F8A5
:1050A0003046F7E730B9E149DF4A1160E049E14AAB
:1050B00011607047016809B1016800E0DB49DA4A14
:1050C0001160416809B1416800E0D949D94A1160CD
:1050D00000BFEEE710B52820D34909688847044689
:1050E0001CB12821204602F094F8204610BD70B56E
:1050F000044622E02568A08900F4807020B9A068E9
:1051000010B1A068FFF7F3FFA08900F4807028B900
:10511000206918B1C749206909688847A08900F447
:10512000007028B9206A18B1C249206A0968884706
:105130002046C049096888472C46002CDAD170BD4A
:105140002DE9F04F8BB083468A4600200446054681
:105150000026B94F00218846894609900120089011
:105160009AF800002D2802D1B44F0AF1010A9AF8EA
:105170000000302801D10AF1010A9AF80000312814
:1051800022DB9AF8000039281EDC00BF1AF8011B48
:10519000A1F1300004F07DFB0022A94BCDE906010E
:1051A0002046294604F0C8FBCDE90401DDE90623C9
:1051B00004F0F0F804460D469AF80000302803DBAE
:1051C0009AF800003928E1DD9AF800002E2830D145
:1051D0009AF8010030282CDB9AF80100392828DCE5
:1051E0000AF1010A00BF1AF8011BA1F1300004F016
:1051F00050FB0022924BCDE906012046294604F0DF
:105200009BFBCDE90401DDE9062304F0C3F8044665
:105210000D460022884B4046494604F0B3FD8046C7
:1052200089469AF80000302803DB9AF800003928F4
:10523000D9DD9AF80000652803D09AF800004528C7
:1052400023D10AF1010A9AF800002B2802D10AF1B1
:10525000010A08E09AF800002D2804D14FF0FF3031
:1052600008900AF1010A08E01AF8010B3038099990
:1052700001EB810100EB410009909AF80000302811
:1052800003DB9AF800003928EEDDDDE9082101FB97
:1052900002F004F0FEFA42464B46CDE9000104F06C
:1052A00079F802460B46CDE902010020644903F07B
:1052B00043FB22462B46CDE906013046394604F031
:1052C0003BFBCDE90401DDE9062304F035FB044690
:1052D0000D46CBE906452046294604F0ABFACBF84B
:1052E00014000320CBF80C0050460BB0BDE8F08F43
:1052F0000146491E41EA610141EAA10141EA211149
:1053000041EA212141EA2141481C70472DE9F04141
:1053100004460E460CB1206810B90020BDE8F081AB
:10532000A06806446068B04203DBA16820680844B6
:10533000F4E73046FFF7DCFF074638463A4909688C
:10534000884705463DB93B492068096888470020E1
:1053500060602060E2E725B12846D4E9001201F040
:10536000BFFE344920680968884767602560A068E7
:105370002844D3E770B504460CB1206808B9002072
:1053800070BDA16820684518284601F03FFEA1685D
:105390000844F5E72DE9FC4782460E464FF0000928
:1053A000DAE90645002213462046294604F006FAAB
:1053B00013D12EB102213046FFF7A8FF814604E049
:1053C00002201949096888478146B9F1000F03D0C6
:1053D0001CA00088A9F80000A0E0DAF8140004F08E
:1053E00058FA074622462B4604F0CCFC21F0004137
:1053F0000022154BCDE9000104F062FA3FD8134AB0
:10540000134B2046294604F05BFA38D80022114B92
:105410002046294604F08EFB31D80EB315213046C4
:105420001AE000004C00002050000020B56A00087F
:10543000136B0008540000200000F03F0000F0BF94
:1054400000002440300000000000B03C0000C0FF1D
:10545000FFFFDF410000E0C1FFF758FF814604E095
:105460001520FA49096888478146B9F1000F55D0DF
:10547000F7A14846DAF8142001F09AFB4EE02EB16D
:1054800040213046FFF742FF814604E04020EF49CB
:10549000096888478146B9F1000F3FD02046294668
:1054A00003F0DCF9074622462B4604F06BFC21F0A2
:1054B00000410022E74BCDE9000104F001FA0FD8CA
:1054C00025F000412746E44AE44B384604F0F8F959
:1054D00006D222462B46E2A1484601F069FB1DE0B8
:1054E00025F000412746E04AE04B384604F0E8F951
:1054F00007D325F000410022DD4B384604F01AFBAB
:1055000006D222462B46DBA1484601F051FB05E0BE
:1055100022462B46D8A1484601F04AFB4846BDE842
:10552000FC87014600220878302806DB08783928F5
:1055300003DC08783038024415E00878412806DB9F
:105540000878462803DC0878373802440BE00878EE
:10555000612806DB0878662803DC0878573802449F
:1055600001E0002070471201491C0878302806DB52
:105570000878392803DC08783038024415E00878C8
:10558000412806DB0878462803DC087837380244CF
:105590000BE00878612806DB0878662803DC0878C9
:1055A0005738024401E00020DCE71201491C08786A
:1055B000302806DB0878392803DC087830380244C4
:1055C00015E00878412806DB0878462803DC0878CF
:1055D000373802440BE00878612806DB0878662833
:1055E00003DC08785738024401E00020BAE71201D2
:1055F000491C0878302806DB0878392803DC08784D
:105600003038024415E00878412806DB087846283F
:1056100003DC0878373802440BE00878612806DBA1
:105620000878662803DC08785738024401E0002037
:1056300098E7104696E72DE9F05F8346884608F123
:105640000104002798F80000222805D08B48C0F8F4
:1056500000800020BDE8F09F04E014F8011B5C29E5
:1056600000D1641C2078222804D0207810B1781C46
:105670000700F2D1781C7549096888478146B9F15D
:10568000000F01D10020E5E708F101044D469EE03E
:1056900020785C2804D014F8010B05F8010B96E083
:1056A000641C2078722818D006DC622809D066288D
:1056B0000BD06E287ED10CE0742812D07528F9D159
:1056C00013E0082005F8010B7FE00C2005F8010B22
:1056D0007BE00A2005F8010B77E00D2005F8010BAF
:1056E00073E0092005F8010B6FE0601CFFF719FF5C
:1056F0000646241DB6F55C4F02D3B6F5604F00D3C5
:1057000006B962E0B6F5584F1CD3B6F55C4F19D216
:1057100060785C2802D1A078752800D055E0E01CA4
:10572000FFF7FFFE8246A41DBAF55C4F02D3BAF51F
:10573000604F00D349E0C6F30901504661F39F2052
:1057400000F580360427802E01D2012708E0B6F547
:10575000006F01D2022703E0B6F5803F00D2032795
:105760003D44012F20D0022F15D0032F0AD0042F43
:1057700024D106F0BF0040F08001681E054601708C
:10578000B60900BF06F0BF0040F08001681E054664
:105790000170B60900BF06F0BF0040F08001681E2E
:1057A00005460170B60900BF3548C05D3043C1B23F
:1057B000681E00E005E00546017000BF00BF3D44E3
:1057C00003E0207805F8010B00BF00BF641C2078BF
:1057D000222803D0207800287FF45AAF00202870B8
:1057E0002078222800D1641CCBF810900420CBF83C
:1057F0000C0020462EE72DE9F05F80468946002701
:10580000BB46454611E02878002802DD287820288C
:1058100005DB2878222802D028785C2801D10120D5
:1058200000E0002040EA0B0B6D1C28780028EAD12C
:10583000BBF1000F3ED1A5EB0807B9F1000F21D055
:10584000F91C4846FFF762FD064620E050000020A4
:10585000256400000000B03C44F3C2E4E4E9634C7A
:10586000252E3066000000008DEDB5A0F7C6B03ED5
:1058700065CDCD4125650000256600004C00002067
:10588000C9C40008F81CF74909688847064616B9D4
:105890000020BDE8F09F3446222004F8010B414669
:1058A000204601F08FFB2220E0550021781C215476
:1058B0003046EEE7B8F1000F16D1B9F1000F05D070
:1058C00003214846FFF722FD064604E00320E54990
:1058D0000968884706460EB90020DAE7E2A130469B
:1058E00001F070FB3046D4E745460BE05146DFA09F
:1058F00001F03AFB08B17F1C03E0BAF1200F00DA97
:105900007F1D6D1C95F800A0BAF1000F03D07F1C1D
:1059100001200028EAD1B9F1000F05D0F91C484652
:10592000FFF7F4FC064604E0F81CCE4909688847F6
:1059300006460EB90020ACE734464546222004F85E
:10594000010B47E028781F280ADD2878222807D095
:1059500028785C2804D015F8010B04F8010B39E015
:105960005C2004F8010B15F8011B8A460C2919D09C
:1059700006DC082912D0092920D00A2922D115E0F5
:105980000D2917D0222905D05C291BD15C2004F8F1
:10599000010B1EE0222004F8010B1AE0622004F83B
:1059A000010B16E0662004F8010B12E06E2004F8EB
:1059B000010B0EE0722004F8010B0AE0742004F8D9
:1059C000010B06E05246ABA1204601F0F1F8641D40
:1059D00000BF00BF28780028B4D1222004F8010BB2
:1059E000002004F8010B304653E770B504460D461D
:1059F00029462069FFF7FFFE70BD00E0401C20B182
:105A0000017811B101782029F8DD70472DE9F047C0
:105A100006460C4620787B2804D098480460002075
:105A2000BDE8F0870620F060601CFFF7E6FF044643
:105A300020787D2801D1601CF2E7FFF74BFB05467B
:105A4000B060B06808B90020EAE72046FFF7D5FF4C
:105A5000804641462846FFF7EEFD0746FFF7CDFF9B
:105A600004460CB90020DBE7286928620020286181
:105A700020783A2803D0814804600020D0E7601CD9
:105A8000FFF7BBFF80464146284600F09BF80746DB
:105A9000FFF7B3FF04460CB90020C1E732E0FFF77F
:105AA00019FB07460FB90020BAE72F607D603D461D
:105AB000601CFFF7A2FF814649462846FFF7BBFD61
:105AC0008046FFF79AFF04460CB90020A8E7286932
:105AD00028620020286120783A2803D067480460B3
